:030000000206AE47
:0C06AE00787FE4F6D8FD7581390206F56E
:080926000234001E0232000F32
:08092F008F993099FDC2992255
:04080700AB07AA068B
:10080B00E4F50F7C007D0AAF03AE021203D9ED2491
:10081B0030FFAE0F050F740A2EF8A6077C007D0A79
:10082B00AF03AE021203D9AA06AB07EB4A70D4157D
:10083B000F740A250FF8E6FF12092FE50F70F07FF2
:04084B000A02092F65
:100898007F01120452AC06AD07E412031F7B0A7AEB
:1008A800D7794378401200FB1203588E368F3722CF
:10091500438E805389F0758AFC758CFFC28DD28C0D
:0109250022AF
:1008EC0075985075D78F75D6FD438E04438E014392
:0508FC008E10D2AC22B9
:08073A008F0D8E0C8D0B8C0A53
:10074200E4FFFE7DB47C42AB0DAA0CA90BA80A12F1
:1007520002A1600D400BE4F50DF50C750BB4750AA2
:1007620042E4FFFE7D207C41AB0DAA0CA90BA80A36
:100772001202A1500BE4F50DF50C750B20750A4120
:10078200E4FFFE7D7F7C43AB0DAA0CA90BA80A12E5
:1007920000FBE4FBFA79C87842120204A804A90516
:1007A200AA06AB07E4FFFE7D7F7C4312000612031C
:0507B200588FEB8FFBE6
:0107B700221F
:10087500E5A254CF4410F5A2C2DEE4F5E9F5F97519
:10088500D904F5F375DB42FFFE7D487C4212073A39
:03089500D2DE228E
:06093700E4F530F5312269
:10060F00C3EF9DFDEE9CFCE412031F8F278E268DFA
:10061F00258C24C3E49535FDE49534FCE412031FC7
:10062F00AB27AA26A925A8241200FBE4FBFA7948D8
:10063F0078431202048F2B8E2A8D298C28C3E495C0
:10064F0033FDE49532FCE412031FAB27AA26A9253C
:10065F00A8241200FBE4FBFA794878431202048FB6
:10066F002F8E2E8D2D8C2CAC30AD31EC12031FAB99
:10067F002FAA2EA92DA82C12000A1203588E308FE4
:10068F0031AC30AD31EC12031FAB2BAA2AA929A82C
:0E069F002812000AE4FBFA7948784212000A99
:0106AD00222A
:1007B8001209151208EC1208751208D3120937D25B
:1007C800AFE4F5B175B2407591FFF5927F637E0491
:1007D800120807AE08AF09E4FCFD7BFA7AFFF9F8C6
:1007E800C312043C700F120898AF37AE36120807D0
:0F07F800E4F508F5090509E50970D8050880D46E
:1008B80078EFE6753800F539E539753900F5380807
:0A08C800E62539F539E43538F53836
:0108D2002203
:10084F00EF4488F5BC00000000E5BC30E4FB53BC6E
:10085F00EFAFBD7E00EF7802C333CE33CED8F9FFB2
:05086F00ADBEED4207E3
:010874002261
:10090100E4F5BDF59DFF12084FE4FF12084FE4FF27
:0309110012084F7A
:0109140022C0
:02045200AC07F5
:10045400E4F50AF50B750C04F50DF50EF50FF51220
:10046400F513751404F515F516F517ECC394085037
:100474000CECC394004006E4F5BD759DFFE4FBEC71
:10048400C39408502FECC394004029AF0412084FC2
:10049400D3E50D9FE50C9E40048E0C8F0DC3E50F34
:1004A4009FE50E9E50048E0E8F0FEF250BF50BEE7D
:1004B400350AF50A1209018E108F11D3E51595112D
:1004C400E51495104006851014851115C3E517959C
:1004D40011E51695105006851016851117E511259E
:1004E40013F513E5103512F5120BEB640B709075D0
:1004F4001800751909ECC3940840030205A2ECC363
:10050400940050030205A2E5139515FFE512951416
:10051400FEC3EF9517FDEE9516FCE412031FC0040D
:10052400C005C006C007AC18AD19E412031FA80427
:10053400A905AA06AB07D007D006D005D00412023D
:10054400048F238E228D218C20C3E50B950DFFE5AE
:100554000A950CFEC3EF950FFDEE950EFCE4120315
:100564001FC004C005C006C007AC18AD19E41203CF
:100574001FA804A905AA06AB07D007D006D005D04A
:10058400041202048F1F8E1E8D1D8C1CAC38AD39D5
:10059400E412031FAB1FAA1EA91DA81C8053C3E5A8
:1005A400139515FFE5129514FEC3EF9517FDEE950F
:1005B40016FCE412031FC004C005C006C007AC1833
:1005C400AD19E412031FA804A905AA06AB07D007B6
:1005D400D006D005D0041202048F238E228D218CE4
:1005E40020AC38AD39E412031F7B007AC0797F78E0
:1005F400441200FBAB23AA22A921A8201202041250
:0A06040003588E1A8F1BAE1AAF1BAD
:01060E0022C9
:1008D300759DFFE4F5BD75BC807F107E27EF1F700B
:0908E300011EEF4E70F70208B887
:100003000203C4E86480F8E933E83360110460F064
:10001300ED33EC337009E8FCE9FDEAFEEBFF220463
:1000230060DED3EB9FEA9EE99DE8C2E78CF0C2F75E
:1000330095F0400CE8CCF8E9CDF9EACEFAEBCFFB2A
:1000430012038F85D0F05804700320D5B3E80470F1
:10005300075002B2D50203CE92D5EC0460F7E4CC8C
:10006300C0E0C398F8603B94186008400DD0E0FBF3
:100073000203A6E4FBFAC9FC8028E830E406E4C9DD
:10008300FBE4CAFCE830E305E4C9CACBFCE8540747
:100093006010F8C3E913F9EA13FAEB13FBEC13FC52
:1000A300D8F130F52FC3E49CFCEF9BFFEE9AFEEDF5
:1000B30099FDD0E0FBEF4E4D4C701222DB0302039F
:1000C300CBEC2CFCEF33FFEE33FEED33FDED30E7ED
:1000D300EB0203A6EF2BFFEE3AFEED39FDD0E0FB7A
:1000E30050130BBB00030203CEED13FDEE13FEEF23
:0800F30013FFEC13FC0203A64D
:1000FB00EC4D6011E8497017ED33EC3304600DE4FF
:10010B00FCFFFEFD22E933E8330470F80203C4124E
:10011B00038F58046009E4CC24815006285009024F
:10012B0003CE2840030203CBC0E0EB4A7044B980F6
:10013B0006D0E0FB0203BAEF4E701CBD8008EBFF4C
:10014B00EAFEE9FD80EBE98DF0A4FEE5F00201E4A7
:10015B00E9CDF9EAFEEBFFEF89F0A4FCE5F0CE89DF
:10016B00F0A42EFFE435F0CD89F0A42DFEE435F09C
:10017B008067EF4E7005BD80D780C3EF8BF0A4ACCA
:10018B00F0EE8BF0A42CFCE435F0F8EF8AF0A42C05
:10019B00E5F038FCE433CB8DF0A42CFCE5F03BF818
:1001AB00EE8AF0A42CFCE5F038F8E433CF89F0A408
:1001BB002CFCE5F038CF3400CE89F0A42FFFE5F00E
:1001CB003EFEE433C98DF0A42EFEE5F039CD8AF066
:1001DB00A42FFFE5F03EFEE43DFD33D0E0FB5007DE
:1001EB000BBB000F0203CEEC2CFCEF33FFEE33FE08
:0601FB00ED33FD0203A636
:100201000203CEEC5D046005E8590470030203C4E7
:1002110012038F580460F6EC4860F2EC7004FDFEA6
:10022100FF22C860DB2481C85009C39860025006D0
:100231000203CB9850CAF582E9294B4A7005AB827B
:100241000203BA75F0007C1A7880C3EF9BEE9AED39
:1002510099400DC3EF9BFFEE9AFEED99FDE842F048
:10026100DC23ACF0D0E0FFD0E0FED0E0FDAB82209B
:10027100E7101BEB60BAEC2CFCEF33FFEE33FEED25
:1002810033FD0203A6E803F830E705C0F075F0007E
:10029100EF2FFFEE33FEED33FD40B830E7C280AA09
:1002A10074F8CC6480CCC86480C8F58204604FC304
:1002B100EB9FF5F0EA9E42F0E99D42F0E89C45F0A3
:1002C100603C501DE5825FFFE582D313CB5BCBF42D
:1002D1002B5582FB50280ABA002409B90020088056
:1002E1001DE5825BFBE582D313CF5FCFF4C3132FF0
:1002F1005582FF50090EBE00050DBD00010CC3EB78
:100301009FF5F0EA9E42F0E99D42F0E89C45F060DD
:0903110007CC4820E701B3EC22FF
:10031A0075F020800E75F010800575F0087D007E5E
:10032A00007F003392D530D50312042EEC334010EF
:10033A00EF33FFEE33FEED33FDEC33FCD5F0ED2267
:0E034A00E5F0247EA2D513CC92E7CDCEFF22A3
:10035800EDD2E7CD33EC3392D524814006E4FFFE9D
:10036800FDFC22FCE4CFCECDCC24E0501174FF80FC
:10037800EDC3CC13CCCD13CDCE13CECF13CF047099
:07038800F030D5DE02042E67
:10038F00E9D2E7C933E833F892D5EDD2E7CD33ECB4
:07039F0033FC5002B2D5222D
:1003A600EC30E7100FBF000C0EBE00080DBD0004B8
:1003B6000BEB6014A2D5EB13FCED92E7FD2274FF64
:1003C600FCFDFEFF22E480F8A2D574FF13FC7D80BD
:0303D600E480EFD1
:1006BA000207B8E493A3F8E493A34003F68001F297
:1006CA0008DFF48029E493A3F85407240CC8C33341
:1006DA00C4540F4420C8834004F456800146F6DF10
:1006EA00E4800B0102040810204080900926E47E71
:1006FA00019360BCA3FF543F30E509541FFEE49305
:10070A00A360010ECF54C025E060A840B8E493A3CB
:10071A00FAE493A3F8E493A3C8C582C8CAC583CAF6
:10072A00F0A3C8C582C8CAC583CADFE9DEE780BEAE
:01092E0000C8
:1003D900BC000BBE0029EF8DF084FFADF022E4CC08
:1003E900F875F008EF2FFFEE33FEEC33FCEE9DECD1
:1003F900984005FCEE9DFE0FD5F0E9E4CEFD22ED17
:10040900F8F5F0EE8420D21CFEADF075F008EF2F60
:10041900FFED33FD4007985006D5F0F222C398FD51
:050429000FD5F0EA22EE
:0E042E00C3E49FFFE49EFEE49DFDE49CFC22DF
:10043C00EB9FF5F0EA9E42F0E99D42F0EC6480C837
:06044C0064809845F022D7
:00000001FF
